00COTAHIST.2019BOVESPA 20191230                                                                                                                                                                                                                      
012019010202AALR3       010ALLIAR      ON      NM   R$  000000000133100000000013500000000001325000000000133300000000013250000000001320000000000132500856000000000000264200000000000352396200000000000000009999123100000010000000000000BRAALRACNOR6100
012019010202AAPL34      010APPLE       DRN          R$  000000000607100000000060710000000005989000000000604700000000060410000000005991000000000604100045000000000000016800000000000101596900000000000000009999123100000010000000000000BRAAPLBDR004127
012019010202ABBV34      010ABBVIE      DRN          R$  000000003428400000000342840000000034284000000003428400000000342840000000000000000000000000000001000000000000000300000000000010285200000000000000009999123100000010000000000000BRABBVBDR001111
012019010202ABCB4       010ABC BRASIL  PN  EJS N2   R$  000000000164700000000017200000000001635000000000167800000000017120000000001705000000000171203477000000000000571700000000000959830000000000000000009999123100000010000000000000BRABCBACNPR4131
012019010202ABEV3       010AMBEV S/A   ON  EJ       R$  000000000154000000000016300000000001540000000000159500000000016150000000001613000000000161545941000000000018692900000000029820195400000000000000009999123100000010000000000000BRABEVACNOR1121
012019010202ADHM3       010ADVANCED-DH ON           R$  000000000014900000000001500000000000149000000000014900000000001500000000000143000000000015400003000000000000001800000000000000269800000000000000009999123100000010000000000000BRADHMACNOR9101
012019010202AFLT3       010AFLUENTE T  ON           R$  000000000054800000000005480000000000540000000000054300000000005400000000000460000000000054000004000000000000000500000000000000271600000000000000009999123100000010000000000000BRAFLTACNOR1113
012019010202AGRO3       010BRASILAGRO  ON      NM   R$  000000000158000000000016000000000001541000000000158600000000015950000000001590000000000159500165000000000000030000000000000047598500000000000000009999123100000010000000000000BRAGROACNOR7108
012019010202ALPA3       010ALPARGATAS  ON      N1   R$  000000000162000000000016800000000001620000000000165100000000016800000000001680000000000176700021000000000000005500000000000009084800000000000000009999123100000010000000000000BRALPAACNOR0227
012019010202ALPA4       010ALPARGATAS  PN      N1   R$  000000000170300000000017550000000001699000000000172900000000017500000000001748000000000175001825000000000000432100000000000747451000000000000000009999123100000010000000000000BRALPAACNPR7227
012019010202ALSC3       010ALIANSCE    ON      NM   R$  000000000191800000000019650000000001897000000000193700000000019650000000001965000000000196902574000000000000621800000000001204746500000000000000009999123100000010000000000000BRALSCACNOR0111
012019010202ALUP3       010ALUPAR      ON      N2   R$  000000000071100000000007490000000000692000000000071500000000007310000000000702000000000073200031000000000000003800000000000002717700000000000000009999123100000010000000000000BRALUPACNOR8109
012019010202ALUP4       010ALUPAR      PN      N2   R$  000000000055100000000005800000000000549000000000057700000000005800000000000553000000000058000027000000000000006600000000000003813700000000000000009999123100000010000000000000BRALUPACNPR5109
012019010202ALUP11      010ALUPAR      UNT     N2   R$  000000000184900000000018910000000001826000000000185300000000018670000000001867000000000187003547000000000000713500000000001322813900000000000000009999123100000010000000000000BRALUPCDAM15109
012019010202AMAR3       010LOJAS MARISAON      NM   R$  000000000051400000000005600000000000514000000000054400000000005540000000000554000000000055502884000000000001023700000000000557200700000000000000009999123100000010000000000000BRAMARACNOR4112
012019010202AMGN34      010AMGEN       DRN          R$  000000007307800000000730780000000073078000000007307800000000730780000000000000000000000000000001000000000000001300000000000095001400000000000000009999123100000010000000000000BRAMGNBDR004128
012019010202AMZO34      010AMAZON      DRN          R$  000000028557200000002976110000000285572000000029404000000002953460000000000000000000000000000005000000000000000500000000000147020000000000000000009999123100000010000000000000BRAMZOBDR002101
012019010202ANIM3       010ANIMA       ON      NM   R$  000000000168500000000018160000000001685000000000178400000000018010000000001801000000000180901051000000000000241400000000000430697700000000000000009999123100000010000000000000BRANIMACNOR6105
012019010202APER3       010ALPER S.A.  ON      NM   R$  000000000180000000000019180000000001755000000000185200000000018000000000001800000000000187700082000000000000026100000000000048349900000000000000009999123100000010000000000000BRAPERACNOR9100
012019010202ARZZ3       010AREZZO CO   ON  EJ  NM   R$  000000000542400000000055480000000005424000000000551400000000055310000000005510000000000553102683000000000000379500000000002092821000000000000000009999123100000010000000000000BRARZZACNOR3132
012019010202ATOM3       010ATOMPAR     ON           R$  000000000024600000000002630000000000244000000000025300000000002490000000000249000000000025800035000000000000017400000000000004411600000000000000009999123100000010000000000000BRATOMACNOR1103
012019010202ATTB34      010ATT INC     DRN          R$  000000001126900000000112690000000011232000000001126700000000112320000000000000000000001123200002000000000000003100000000000034930200000000000000009999123100000010000000000000BRATTBBDR007125
012019010202AZEV4       010AZEVEDO     PN           R$  000000000010100000000001030000000000099000000000010100000000000990000000000099000000000010200103000000000000082700000000000008394800000000000000009999123100000010000000000000BRAZEVACNPR7116
012019010202AZUL4       010AZUL        PN      N2   R$  000000000359700000000036550000000003545000000000359700000000036330000000003613000000000363509140000000000002795000000000010054479700000000000000009999123100000010000000000000BRAZULACNPR4100
012019010202B3SA3       010B3          ON  EJ  NM   R$  000000000268500000000027910000000002668000000000275700000000027790000000002778000000000277934693000000000024615000000000067881458000000000000000009999123100000010000000000000BRB3SAACNOR6104
012019010202BAHI3       010BAHEMA      ON      MA   R$  000000001335800000000133580000000013001000000001324400000000130010000000013000000000001387400006000000000000000600000000000007946700000000000000009999123100000010000000000000BRBAHIACNOR1070
012019010202BAUH4       010EXCELSIOR   PN           R$  000000000189300000000018940000000001889000000000189200000000018940000000001650000000000189600011000000000000002700000000000005110300000000000000009999123100000010000000000000BRBAUHACNPR3113
012019010202BAZA3       010AMAZONIA    ON           R$  000000000249300000000024990000000002493000000000249800000000024990000000002500000000000259900007000000000000002400000000000005995900000000000000009999123100000010000000000000BRBAZAACNOR0172
012019010202BBAS3       010BRASIL      ON      NM   R$  000000000462000000000049700000000004609000000000485300000000048600000000004859000000000486044353000000000014905300000000072338846000000000000000009999123100000010000000000000BRBBASACNOR3281
012019010202BBDC3       010BRADESCO    ON  EJ  N1   R$  000000000339800000000036110000000003355000000000351200000000035770000000003577000000000358516466000000000003365100000000011818522000000000000000009999123100000010000000000000BRBBDCACNOR1688
012019010202BBDC4       010BRADESCO    PN  EJ  N1   R$  000000000386500000000040790000000003842000000000400400000000040390000000004039000000000404037221000000000023320500000000093391217700000000000000009999123100000010000000000000BRBBDCACNPR8688
012019010202BBRK3       010BR BROKERS  ON      NM   R$  000000000062500000000006990000000000625000000000067700000000006860000000000680000000000068600639000000000000263600000000000178681800000000000000009999123100000010000000000000BRBBRKACNOR4113
012019010202BBSE3       010BBSEGURIDADEON      NM   R$  000000000278800000000028650000000002765000000000283200000000028320000000002832000000000283421811000000000004663200000000013209145100000000000000009999123100000010000000000000BRBBSEACNOR5112
012019010202BEEF3       010MINERVA     ON      NM   R$  000000000049800000000005140000000000486000000000050700000000005080000000000507000000000051203229000000000001874600000000000951271400000000000000009999123100000010000000000000BRBEEFACNOR6108
012019010202BEES3       010BANESTES    ON  EJ       R$  000000000041300000000004220000000000398000000000041200000000004150000000000415000000000041800126000000000000059100000000000024386900000000000000009999123100000010000000000000BRBEESACNOR9319
012019010202BEES4       010BANESTES    PN  EJ       R$  000000000042300000000004230000000000403000000000041800000000004200000000000420000000000046000009000000000000001800000000000000753600000000000000009999123100000010000000000000BRBEESACNPR6244
012019010202BERK34      010BERKSHIRE   DRN          R$  000000007827500000000782750000000077348000000007756300000000773480000000076181000000007772100003000000000000000500000000000038781900000000000000009999123100000010000000000000BRBERKBDR002100
012019010202BGIP4       010BANESE      PN           R$  000000000350200000000035220000000003502000000000351000000000035130000000003301000000000359200005000000000000000500000000000001755200000000000000009999123100000010000000000000BRBGIPACNPR8196
012019010202BIDI4       010BANCO INTER PN  EJ  N1   R$  000000000385500000000039900000000003831000000000389100000000039460000000003925000000000394601408000000000000297300000000001156836300000000000000009999123100000010000000000000BRBIDIACNPR0103
012019010202BIIB34      010BIOGEN      DRN          R$  000000001949000000000194900000000019490000000001949000000000194900000000000000000000000000000001000000000000006100000000000118889000000000000000009999123100000010000000000000BRBIIBBDR001101
012019010202BIOM3       010BIOMM       ON      MA   R$  000000000083000000000008300000000000819000000000082800000000008190000000000810000000000082000006000000000000005200000000000004309900000000000000009999123100000010000000000000BRBIOMACNOR2106
012019010202BKBR3       010BK BRASIL   ON  EJ  NM   R$  000000000205900000000020850000000002027000000000206000000000020650000000002065000000000206805295000000000001431200000000002949010000000000000000009999123100000010000000000000BRBKBRACNOR4101
012019010202BMEB4       010MERC BRASIL PN           R$  000000000071000000000007250000000000709000000000071000000000007250000000000709000000000072500029000000000000008900000000000006323600000000000000009999123100000010000000000000BRBMEBACNPR5199
012019010202BNBR3       010NORD BRASIL ON           R$  000000000379800000000037990000000003797000000000379800000000037990000000003799000000000498000006000000000000001400000000000005317400000000000000009999123100000010000000000000BRBNBRACNOR8197
012019010202BOAC34      010BANK AMERICADRN          R$  000000000935900000000095990000000009359000000000941600000000095990000000000000000000000000000002000000000000010900000000000102637100000000000000009999123100000010000000000000BRBOACBDR004133
012019010202BOBR4       010BOMBRIL     PN           R$  000000000026200000000002740000000000262000000000026500000000002740000000000270000000000027400047000000000000016300000000000004320100000000000000009999123100000010000000000000BRBOBRACNPR3128
012019010202BOEI34      010BOEING      DRN          R$  000000012287800000001228780000000122878000000012287800000001228780000000000000000000000000000001000000000000001000000000000122878000000000000000009999123100000010000000000000BRBOEIBDR003127
012019010202BOXP34      010BOSTON PROP DRN ED       R$  000000000422300000000042230000000004223000000000422300000000042230000000000000000000000000000010000000000000001000000000000004223000000000000000009999123100000010000000000000BRBOXPBDR008114
012019010202BPAC3       010BTGP BANCO  ON           R$  000000000082900000000008290000000000829000000000082900000000008290000000000822000000000082900005000000000000000500000000000000414500000000000000009999123100000010000000000000BRBPACACNOR7118